:020000040800F2
:1000000000000220B10F00080506000807060008DE
:10001000090600080B0600080D0600080000000095
:100020000000000000000000000000000F060008B3
:10003000110600080000000013060008150600085D
:10004000011000080110000801100008011000084C
:10005000011000080110000801100008011000083C
:10006000011000080110000801100008011000082C
:10007000011000080110000801100008011000081C
:100080000110000801100008011000080000000025
:100090000000000000000000000000000110000847
:1000A00001100008011000080110000801100008EC
:1000B00001100008011000080110000801100008DC
:1000C00001100008011000080110000801100008CC
:1000D00001100008011000080110000800000000D5
:1000E00001100008011000080110000800000000C5
:1000F00000000000000000000000000001100008E7
:1001000000000000011000080110000801100008A4
:1001100000000000000000000000000000000000DF
:10012000011000080110000801100008011000086B
:1001300001100008000000000000000000000000A6
:100140000000000000000000000000000110000896
:10015000011000080110000801100008011000083B
:10016000011000080110000800000000000000005D
:10017000000000000000000000000000000000007F
:100180000000000001100008000000000000000056
:08019000011000080110000835
:1001980010B5054C237833B9044B13B10448AFF3B9
:1001A80000800123237010BD0C0000200000000017
:1001B8005C10000808B5034B1BB103490348AFF3B3
:1001C800008008BD00000000100000205C1000083E
:1001D80053B94AB9002908BF00281CBF4FF0FF31A6
:1001E8004FF0FF3000F06EB9ADF1080C6DE904CEA8
:1001F80000F006F8DDF804E0DDE9022304B07047FA
:100208002DE9F047089D04468C46002B40F083807A
:100218008A42174647D9B2FA82F242B1C2F12000A7
:1002280024FA00F09140974040EA010C94404FEACC
:100238001748230CBCFBF8F61FFA87FE08FB16C10B
:1002480043EA014306FB0EF1994209D9FB1806F16E
:10025800FF3080F01981994240F21681023E3B44FA
:100268005B1AA4B2B3FBF8F008FB103344EA03446A
:1002780000FB0EFEA64509D93C1900F1FF3380F0BA
:100288000581A64540F2028102383C4440EA064016
:10029800A4EB0E0400261DB1D4400023C5E9004399
:1002A8003146BDE8F08702B9FFDEB2FA82F2002AD1
:1002B80050D1CB1B4FEA174E1FFA87F80126B3FB24
:1002C800FEFC210C0EFB1C3341EA034108FB0CF336
:1002D8008B4207D979180CF1FF3002D28B4200F219
:1002E800E9808446C91AA3B2B1FBFEF00EFB1011D7
:1002F80043EA014408FB00F8A04507D93C1900F17E
:10030800FF3302D2A04500F2D9801846A4EB0804B6
:1003180040EA0C40BFE78B4209D9002D00F0B180BC
:100328000026C5E9000130463146BDE8F087B3FA3A
:1003380083F6002E4AD18B4202D3824200F2B88063
:10034800841A61EB030101208C46002DA8D0C5E971
:10035800004CA5E7C2F1200320FA03F6974001FA02
:1003680002F04FEA174ED9403043030CB1FBFEF6BA
:100378001FFA87F80EFB161143EA014306FB08F142
:10038800994204FA02F409D9FB1806F1FF3C80F0FF
:100398008D80994240F28A80023E3B445B1A81B2CA
:1003A800B3FBFEF00EFB103341EA034100FB08F3F8
:1003B8008B4207D9791800F1FF3C73D28B4271D96F
:1003C80002383944CB1A40EA064678E7C6F1200CD1
:1003D80003FA06F422FA0CF31C4320FA0CF701FA8C
:1003E80006F34FEA144E21FA0CF11F433B0CB1FB04
:1003F800FEF91FFA84F80EFB191143EA014109FBC3
:1004080008FA8A4502FA06F200FA06F308D96118D2
:1004180009F1FF3048D28A4546D9A9F10209214499
:10042800A1EB0A01BFB2B1FBFEF00EFB101147EAC7
:10043800014700FB08F8B84507D9E71900F1FF3173
:100448002ED2B8452CD90238274440EA0940A7EBF8
:100458000807A0FB02894F45C64649461AD317D05C
:100468005DB1B3EB0E0267EB010707FA0CFCF24033
:100478004CEA0202F740C5E9002700263146BDE8EC
:10048800F0872E4628460BE70646E9E61846FDE6BD
:100498004345E5D2B8EB020E69EB04010138DFE70A
:1004A8000846D2E760468DE78146B9E7664675E7B4
:1004B80030464AE7ACF1020C394413E702383C44B1
:1004C80024E700BF704700BF70B588B000240394CC
:1004D80004940594069407940194174B1A6B42F000
:1004E80001021A631A6B02F001020192019A029446
:1004F8001A6B42F008021A631B6B03F0080302939D
:10050800029B0E4D22464FF40051284600F089FC0C
:10051800012603960494059403A9094800F0A6FB54
:100528004FF40053039304960594069403A92846B0
:1005380000F09CFB08B070BD00380240000C02407F
:100548000000024070B594B03022002108A800F0E5
:1005580079FD002403940494059406940794019467
:10056800194B1A6C42F080521A641B6C03F08053CA
:100578000193019B0294154B1A6842F440421A6099
:100588001B6803F440430293029B02250895012649
:100598000B9610230C930E950F9408231093C022EA
:1005A80011921293139308A800F054F80F230393A1
:1005B800049505944FF4A05306930794314603A875
:1005C80000F0A4FA14B070BD00380240007000407A
:1005D80008B500F0AFFCFFF7B5FFFFF775FF012185
:1005E800044800F017FC02464FF40051024800F09E
:1005F80018FCF4E700000240000C02407047FEE7D8
:10060800FEE7FEE7FEE770477047704708B500F061
:10061800ABFC08BD00B583B0002100910C4B5A6CAF
:1006280042F480425A645A6C02F480420092009A62
:1006380001911A6C42F080521A641B6C03F08053CB
:100648000193019B072000F0F3FB03B05DF804FB66
:1006580000380240002800F0D98170B582B0044605
:10066800036813F0010F3BD0A64B9B6803F00C0303
:10067800042B2CD0A34B9B6803F00C03082B21D030
:100688006368B3F5803F4FD0B3F5A02F52D09D4B90
:100698001A6822F480321A601A6822F480221A60DA
:1006A8006368002B50D000F06BFC0546954B1B6827
:1006B80013F4003F14D100F063FC401B6428F5D903
:1006C8000320AAE18F4B5B6813F4800FD8D08D4BC1
:1006D8001B6813F4003F03D06368002B00F0988177
:1006E800236813F0020F54D0864B9B6813F00C0F4D
:1006F8003ED0844B9B6803F00C03082B33D0E3688F
:10070800002B67D0804B01221A6000F039FC0546A7
:100718007C4B1B6813F0020F53D100F031FC401BD7
:100728000228F5D9032078E1764A136843F4803328
:100738001360B5E7734B1A6842F480221A601A688E
:1007480042F480321A60ABE700F01AFC05466D4BA4
:100758001B6813F4003FC3D000F012FC401B642850
:10076800F5D9032059E1674B5B6813F4800FC6D1B4
:10077800644B1B6813F0020F03D0E368012B40F0B1
:100788004981604A136823F0F803216943EAC103E9
:100798001360236813F0080F40D0636963B35B4BA1
:1007A80001221A6000F0ECFB0546564B5B6F13F014
:1007B800020F33D100F0E4FB401B0228F5D90320D7
:1007C8002BE1504A136823F0F803216943EAC10377
:1007D8001360DEE74C4B00221A6000F0D1FB05469F
:1007E800484B1B6813F0020FD3D000F0C9FB401B25
:1007F8000228F5D9032010E1444B00221A6000F0CA
:10080800BFFB05463F4B5B6F13F0020F06D000F0AD
:10081800B7FB401B0228F5D90320FEE0236813F03C
:10082800040F78D0374B1B6C13F0805F0DD1002379
:100838000193344B1A6C42F080521A641B6C03F01B
:1008480080530193019B012500E00025304B1B6874
:1008580013F4807F21D0A368012B32D0052B36D02A
:10086800284B1A6F22F001021A671A6F22F004024D
:100878001A67A368002B34D000F082FB0646214B90
:100888001B6F13F0020F45D100F07AFB801B41F279
:1008980088339842F3D90320BFE01D4A136843F414
:1008A8008073136000F06CFB0646194B1B6813F449
:1008B800807FD0D100F064FB801B0228F5D903208B
:1008C800ABE0104A136F43F001031367D1E70D4BF8
:1008D8001A6F42F004021A671A6F42F001021A678F
:1008E800C7E700F04DFB0646064B1B6F13F0020FDF
:1008F80010D000F045FB801B41F288339842F3D9B1
:1009080003208AE00038024000004742800E474238
:1009180000700040E5B9A369002B7DD0464A926873
:1009280002F00C02082A51D0022B17D0434B0022A8
:100938001A6000F025FB04463F4B1B6813F0007F4C
:1009480042D000F01DFB001B0228F5D9032064E00B
:10095800394A136C23F080531364DCE7374B0022C9
:100968001A6000F00DFB0546334B1B6813F0007F3F
:1009780006D000F005FB401B0228F5D903204CE007
:10098800E369226A1343626A43EA8213A26A52083D
:10099800013A43EA0243E26A43EA0263264A5360A1
:1009A800264B01221A6000F0EBFA0446224B1B6822
:1009B80013F0007F06D100F0E3FA001B0228F5D9F6
:1009C80003202AE0002028E0002026E0012B26D082
:1009D800194B5B6803F48001E269914221D103F06D
:1009E8003F02216A8A421ED1616A47F6C0721A40E4
:1009F8008A421AD103F44032A16A8A4217D103F01D
:100A08007063E26A934214D1002006E00120704727
:100A1800012002E0012000E0002002B070BD0120AA
:100A2800FBE70120F9E70120F7E70120F5E70120BE
:100A3800F3E70120F1E700BF0038024060004742B9
:100A4800F8B52F4B9B6803F00C03042B53D0082BED
:100A580053D12B4B5A6802F03F025B6813F4800FA6
:100A680028D0274B5B68C3F3881358010021C01AAC
:100A780061F100018E0146EA906687013C1A66EB37
:100A88000105E90041EA5471E000C01841F1000194
:100A98004B0243EAD0534402204619460023FFF78D
:100AA80097FB174B5B68C3F3014301335B00B0FB53
:100AB800F3F023E0124B5B68C3F388135C01002555
:100AC800E41A65F10005AE0146EA9466A701381BF1
:100AD80066EB0501CC0044EA5074C500E81844F1FF
:100AE80000018B0243EA90538402204619460023F2
:100AF800FFF76EFBD5E7034800E00348F8BD00BFE9
:100B08000038024000127A000024F400002800F0A7
:100B18009B8070B50D4604464F4B1B6803F00F03CE
:100B28008B4208D2CBB24C4A1370136803F00F0300
:100B38008B4240F08B80236813F0020F17D013F01C
:100B4800040F04D0454A936843F4E0539360236844
:100B580013F0080F04D0414A936843F4604393604C
:100B68003E4A936823F0F003A1680B43936023681F
:100B780013F0010F32D06368012B21D09A1E012A8D
:100B880025D9364A126812F0020F61D033498A68B3
:100B980022F0030213438B6000F0F2F906462F4B54
:100BA8009B6803F00C036268B3EB820F16D000F069
:100BB800E7F9801B41F288339842F0D9032042E0DC
:100BC800264A126812F4003FE0D101203BE0234A94
:100BD800126812F0007FD9D1012034E01E4B1B6847
:100BE80003F00F03AB4207D9EAB21B4B1A701B681C
:100BF80003F00F03AB422DD1236813F0040F06D086
:100C0800164A936823F4E053E1680B439360236822
:100C180013F0080F07D0114A936823F46043216941
:100C280043EAC1039360FFF70BFF0C4B9B68C3F3C8
:100C380003130B4AD35CD8400A4B18600A4B186858
:100C480000F052F9002070BD012070470120FAE73A
:100C58000120F8E70120F6E7003C02400038024096
:100C680074100008080000200400002000230F2B47
:100C780000F2C780F0B583B039E0042200E000221A
:100C8800B2403A4302345F4E46F824205E4A146864
:100C9800EA4324EA05064F6817F4803F01D045EA85
:100CA8000406594C2660646802EA04064F6817F483
:100CB800003F01D045EA0406534C6660A46802EA86
:100CC80004064F6817F4801F01D045EA04064E4C0D
:100CD800A660E46822404E6816F4001F01D045EA79
:100CE8000402494CE26001330F2B00F28880012294
:100CF8009A400C6804EA020532EA0404F3D14C680D
:100D0800661E012E03D9112C01D0122C12D186682F
:100D18005F000324BC4026EA0406CC68BC40344388
:100D28008460466826EA02064C68C4F300129A40BA
:100D380032434260C7685E000324B440E24327EAB6
:100D480004078C68B4403C43C4604C68022C01D052
:100D5800122C13D1DF08083750F827E003F00704F6
:100D68004FEA840C0F2404FA0CF42EEA040E0C69E2
:100D780004FA0CF444EA0E0440F8274004681440CE
:100D88004A6802F00302B240224302604A6812F045
:100D9800805FA8D0002201921C4A546C44F480441D
:100DA8005464526C02F480420192019A9C08A61C79
:100DB800144A52F8267003F0030296000F22B2403C
:100DC80027EA0207124A90423FF459AF02F58062BF
:100DD80090420ED002F5806290420CD002F58062FB
:100DE80090420AD002F5806290423FF446AF072253
:100DF80046E7012244E7022242E7032240E703B024
:100E0800F0BD704700380140003C01400038024006
:100E1800000002400369194201D0012070470020F8
:100E280070470AB181617047090481617047000009
:100E3800074AD36823F4E0631B041B0C000200F488
:100E4800E060034343F0BF6343F40033D36070476B
:100E580000ED00E030B4174BDB68C3F30223C3F1A5
:100E68000704042C28BF04241D1D062D18D9033B94
:100E78004FF0FF3505FA04F421EA0401994005FA18
:100E880003F322EA0303194300280BDB0901C9B263
:100E980000F1604000F5614080F8001330BC7047F5
:100EA8000023E5E700F00F000901C9B2024B19540D
:100EB800F4E700BF00ED00E014ED00E00138B0F108
:100EC800807F0AD2064B5860064AF02182F8231028
:100ED8000020986007221A6070470120704700BF01
:100EE80010E000E000ED00E010B504460E4B187865
:100EF8004FF47A73B3FBF0F30C4A1068B0FBF3F0CD
:100F0800FFF7DCFF68B90F2C01D901200AE00022A5
:100F180021464FF0FF30FFF79DFF054B1C60002076
:100F280000E0012010BD00BF0000002008000020E4
:100F38000400002008B50B4B1A6842F400721A60CE
:100F48001A6842F480621A601A6842F480721A6061
:100F58000320FFF76DFF0020FFF7C6FFFFF75AFBDE
:100F6800002008BD003C0240034A1168034B1B786F
:100F78000B441360704700BF2800002000000020C9
:100F8800014B1868704700BF28000020054BD3F8B4
:100F9800882042F47002C3F888204FF000629A60FB
:100FA800704700BF00ED00E0DFF834D0002103E017
:100FB8000C4B5B58435004310B480C4B42189A4277
:100FC800F6D30B4A02E0002342F8043B094B9A424D
:100FD800F9D3FFF7DBFF00F011F8FFF7F9FA7047D4
:100FE8000000022094100008000000200C000020DF
:100FF8000C0000202C000020FEE7000070B50D4D0D
:101008000D4C641BA4100026A64209D10B4D0C4CB4
:1010180000F020F8641BA4100026A64205D170BD7C
:1010280055F8043B98470136EEE755F8043B9847D6
:101038000136F2E78C1000088C1000088C100008AC
:101048009010000802440346934200D1704703F809
:10105800011BF9E7F8B500BFF8BC08BC9E4670470D
:0C106800F8B500BFF8BC08BC9E467047FD
:101074000000000000000000010203040607080944
:0810840084F1FF7F0100000070
:04108C00BD0100089A
:0410900099010008BA
:0C10940001000000100000000024F40027
:0400000508000FB12F
:00000001FF
