:020000040800F2
:100000000000022041100008911000089110000823
:1000100091100008911000089110000800000000E5
:100020000000000000000000000000009110000827
:100030009110000800000000911000084D02000817
:10004000911000089110000891100008911000080C
:1000500091100008911000089110000891100008FC
:1000600091100008911000089110000891100008EC
:1000700091100008911000089110000891100008DC
:100080009110000891100008911000080000000075
:1000900000000000000000000000000091100008B7
:1000A00091100008911000089110000891100008AC
:1000B000911000089110000891100008911000089C
:1000C000911000089110000891100008911000088C
:1000D0009110000891100008911000080000000025
:1000E0009110000891100008911000080000000015
:1000F0000000000000000000000000009110000857
:1001000000000000911000089110000891100008F4
:1001100000000000000000000000000000000000DF
:10012000911000089110000891100008911000082B
:100130009110000800000000000000000000000016
:100140000000000000000000000000009110000806
:1001500091100008911000089110000891100008FB
:10016000911000089110000800000000000000003D
:10017000000000000000000000000000000000007F
:1001800000000000911000080000000000000000C6
:08019000911000089110000815
:1001980010B5054C237833B9044B13B10448AFF3B9
:1001A80000800123237010BD3C04002000000000E3
:1001B8006C13000808B5034B1BB103490348AFF3A0
:1001C800008008BD00000000400400206C130008F7
:1001D800154B002B08BF134B9D46A3F5803A002111
:1001E8008B460F461348144A121A00F083FF0F4B30
:1001F800002B00D098470E4B002B00D098470020CA
:10020800002104000D000D48002802D00C4801F020
:1002180031F800F04BFF2000290000F055FE00F0F7
:1002280035FF00BF000008000000000000000000CB
:10023800000000003C040020540900207D12000842
:100248008912000872B62DE9F00F06480168C1F856
:1002580000D049680160D1F800D0BDE8F00F62B65F
:10026800704700005804002007480268D2F800D000
:10027800BDE8F00F0FBC5DF804CB01B05DF804EBEE
:1002880001B062B67047000058040020B813000897
:10029800000000203C0400203C04002054090020F9
:1002A80070B54FF0FF0C4CF4E06C1CEA11541DBF04
:1002B8001CEA135594EA0C0F95EA0C0F00F0DEF8CF
:1002C8002C4481EA030621EA4C5123EA4C5350EAB4
:1002D800013518BF52EA033541F4801143F4801305
:1002E80038D0A0FB02CE4FF00005E1FB02E506F096
:1002F8000042E0FB03E54FF00006E1FB03569CF0EB
:10030800000F18BF4EF0010EA4F1FF04B6F5007FF0
:1003180064F5407404D25FEA4E0E6D4146EB060662
:1003280042EAC62141EA55514FEAC52040EA5E50EB
:100338004FEACE2EB4F1FD0C88BFBCF5E06F1ED895
:10034800BEF1004F08BF5FEA500E50F1000041EBCC
:10035800045170BD06F0004646EA010140EA020079
:1003680081EA0301B4EB5C04C2BFD4EB0C0541EA9B
:10037800045170BD41F480114FF0000E013C00F3B0
:10038800AB8014F1360FDEBF002001F0004170BDD4
:10039800C4F10004203C35DA0C341BDC04F11404ED
:1003A800C4F1200500FA05F320FA04F001FA05F279
:1003B80040EA020001F0004221F0004110EBD37046
:1003C80021FA04F642EB06015EEA430E08BF20EA72
:1003D800D37070BDC4F10C04C4F1200500FA04F315
:1003E80020FA05F001FA04F240EA020001F00041A7
:1003F80010EBD37041F100015EEA430E08BF20EA1A
:10040800D37070BDC4F1200500FA05F24EEA020E61
:1004180020FA04F301FA05F243EA020321FA04F090
:1004280001F0004121FA04F220EA020000EBD37047
:100438005EEA430E08BF20EAD37070BD94F0000F47
:100448000FD101F00046400041EB010111F4801F7B
:1004580008BF013CF7D041EA060195F0000F18BF2C
:10046800704703F00046520043EB030313F4801F68
:1004780008BF013DF7D043EA0603704794EA0C0F22
:100488000CEA135518BF95EA0C0F0CD050EA410638
:1004980018BF52EA4306D1D181EA030101F00041B5
:1004A8004FF0000070BD50EA410606BF10461946DD
:1004B80052EA430619D094EA0C0F02D150EA0136E9
:1004C80013D195EA0C0F05D152EA03361CBF10462A
:1004D80019460AD181EA030101F0004141F0FE41C9
:1004E80041F470014FF0000070BD41F0FE4141F44D
:1004F800780170BD81F0004102E000BF83F0004345
:1005080030B54FEA41044FEA430594EA050F08BFA6
:1005180090EA020F1FBF54EA000C55EA020C7FEA6A
:10052800645C7FEA655C00F0E2804FEA5454D4EBE7
:100538005555B8BF6D420CDD2C4480EA020281EAB1
:10054800030382EA000083EA010180EA020281EAE9
:100558000303362D88BF30BD11F0004F4FEA01313B
:100568004FF4801C4CEA113102D0404261EB41014A
:1005780013F0004F4FEA03334CEA133302D05242D0
:1005880063EB430394EA050F00F0A780A4F101048C
:10059800D5F1200E0DDB02FA0EFC22FA05F28018C6
:1005A80041F1000103FA0EF2801843FA05F35941AC
:1005B8000EE0A5F120050EF1200E012A03FA0EFC2B
:1005C80028BF4CF0020C43FA05F3C01851EBE37155
:1005D80001F0004507D54FF0000EDCF1000C7EEB72
:1005E80000006EEB0101B1F5801F1BD3B1F5001FB0
:1005F8000CD349085FEA30004FEA3C0C04F10104CF
:100608004FEA445212F5800F80F09A80BCF1004FF7
:1006180008BF5FEA500C50F1000041EB045141EA79
:10062800050130BD5FEA4C0C404141EB0101013C42
:1006380028BFB1F5801FE9D291F0000F04BF014631
:100648000020B1FA81F308BF2033A3F10B03B3F103
:1006580020020CDA0C3208DD02F1140CC2F10C0293
:1006680001FA0CF021FA02F10CE002F11402D8BFF1
:10067800C2F1200C01FA02F120FA0CFCDCBF41EABD
:100688000C019040E41AA2BF01EB0451294330BD8C
:100698006FEA04041F3C1CDA0C340EDC04F1140469
:1006A800C4F1200220FA04F001FA02F340EA030040
:1006B80021FA04F345EA030130BDC4F10C04C4F186
:1006C800200220FA02F001FA04F340EA0300294666
:1006D80030BD21FA04F0294630BD94F0000F83F4B0
:1006E800801306BF81F480110134013D4EE77FEA93
:1006F800645C18BF7FEA655C29D094EA050F08BFDF
:1007080090EA020F05D054EA000C04BF19461046BF
:1007180030BD91EA030F1EBF0021002030BD5FEA03
:10072800545C05D14000494128BF41F0004130BD2B
:1007380014F580043CBF01F5801130BD01F000457F
:1007480045F0FE4141F470014FF0000030BD7FEAF2
:10075800645C1ABF194610467FEA655C1CBF0B46ED
:10076800024650EA013406BF52EA033591EA030F04
:1007780041F4002130BD00BF90F0000F04BF0021FC
:10078800704730B54FF4806404F132044FF000052F
:100798004FF0000150E700BF90F0000F04BF0021A8
:1007A800704730B54FF4806404F1320410F000450E
:1007B80048BF40424FF000013EE700BF42004FEA09
:1007C800E2014FEA31014FEA02701FBF12F07F4386
:1007D80093F07F4F81F06051704732F07F4208BF3D
:1007E800704793F07F4F04BF41F40021704730B544
:1007F8004FF4607401F0004521F000411CE700BF90
:1008080050EA010208BF704730B54FF000050AE012
:1008180050EA010208BF704730B511F0004502D513
:10082800404261EB41014FF4806404F132045FEA15
:10083800915C3FF4D8AE4FF003025FEADC0C18BFBE
:1008480003325FEADC0C18BF033202EBDC02C2F1B0
:10085800200300FA03FC20FA02F001FA03FE40EA42
:100868000E0021FA02F11444BDE600BF70B54FF046
:10087800FF0C4CF4E06C1CEA11541DBF1CEA135524
:1008880094EA0C0F95EA0C0F00F0DEF82C4481EA8C
:10089800030621EA4C5123EA4C5350EA013518BFAC
:1008A80052EA033541F4801143F4801338D0A0FB99
:1008B80002CE4FF00005E1FB02E506F00042E0FB46
:1008C80003E54FF00006E1FB03569CF0000F18BF4C
:1008D8004EF0010EA4F1FF04B6F5007F64F54074F4
:1008E80004D25FEA4E0E6D4146EB060642EAC62187
:1008F80041EA55514FEAC52040EA5E504FEACE2EF4
:10090800B4F1FD0C88BFBCF5E06F1ED8BEF1004FF6
:1009180008BF5FEA500E50F1000041EB045170BD72
:1009280006F0004646EA010140EA020081EA0301B6
:10093800B4EB5C04C2BFD4EB0C0541EA045170BDB2
:1009480041F480114FF0000E013C00F3AB8014F12C
:10095800360FDEBF002001F0004170BDC4F1000475
:10096800203C35DA0C341BDC04F11404C4F12005F6
:1009780000FA05F320FA04F001FA05F240EA020051
:1009880001F0004221F0004110EBD37021FA04F687
:1009980042EB06015EEA430E08BF20EAD37070BD41
:1009A800C4F10C04C4F1200500FA04F320FA05F0A0
:1009B80001FA04F240EA020001F0004110EBD370A2
:1009C80041F100015EEA430E08BF20EAD37070BD12
:1009D800C4F1200500FA05F24EEA020E20FA04F3EB
:1009E80001FA05F243EA020321FA04F001F000419A
:1009F80021FA04F220EA020000EBD3705EEA430E0B
:100A080008BF20EAD37070BD94F0000F0FD101F039
:100A18000046400041EB010111F4801F08BF013C72
:100A2800F7D041EA060195F0000F18BF704703F0B0
:100A38000046520043EB030313F4801F08BF013D37
:100A4800F7D043EA0603704794EA0C0F0CEA1355F3
:100A580018BF95EA0C0F0CD050EA410618BF52EAAD
:100A68004306D1D181EA030101F000414FF00000B3
:100A780070BD50EA410606BF1046194652EA4306C1
:100A880019D094EA0C0F02D150EA013613D195EA35
:100A98000C0F05D152EA03361CBF104619460AD17D
:100AA80081EA030101F0004141F0FE4141F4700187
:100AB8004FF0000070BD41F0FE4141F4780170BD77
:100AC80070B54FF0FF0C4CF4E06C1CEA11541DBFDC
:100AD8001CEA135594EA0C0F95EA0C0F00F0A7F8DE
:100AE800A4EB050481EA030E52EA03354FEA01310B
:100AF80000F088804FEA03334FF0805545EA13131E
:100B080043EA12634FEA022245EA111545EA1065E5
:100B18004FEA00260EF000419D4208BF964244F17C
:100B2800FD0404F5407402D25B084FEA3202B61A9B
:100B380065EB03055B084FEA32024FF480104FF46F
:100B4800002CB6EB020E75EB030E22BFB61A7546E3
:100B580040EA0C005B084FEA3202B6EB020E75EB76
:100B6800030E22BFB61A754640EA5C005B084FEADE
:100B78003202B6EB020E75EB030E22BFB61A7546AB
:100B880040EA9C005B084FEA3202B6EB020E75EBB6
:100B9800030E22BFB61A754640EADC0055EA060E77
:100BA80018D04FEA051545EA16754FEA06164FEABA
:100BB800C30343EA52734FEAC2025FEA1C1CC0D166
:100BC80011F4801F0BD141EA00014FF000004FF0F3
:100BD800004CB6E711F4801F04BF01430020B4F1B4
:100BE800FD0C88BFBCF5E06F3FF6AFAEB5EB030C6C
:100BF80004BFB6EB020C5FEA500C50F1000041EB69
:100C0800045170BD0EF0004E4EEA113114EB5C0435
:100C1800C2BFD4EB0C0541EA045170BD41F4801108
:100C28004FF0000E013C90E645EA060E8DE60CEA10
:100C3800135594EA0C0F08BF95EA0C0F3FF43BAF2D
:100C480094EA0C0F0AD150EA01347FF434AF95EAE4
:100C58000C0F7FF425AF104619462CE795EA0C0FC8
:100C680006D152EA03353FF4FDAE1046194622E795
:100C780050EA410618BF52EA43067FF4C5AE50EA6F
:100C880041047FF40DAF52EA43057FF4EBAE12E75F
:100C98004A0011D212F5001211D20DD56FF47873F3
:100CA800B3EB62520ED44FEAC12343F0004343EA48
:100CB800505323FA02F070474FF00000704750EA93
:100CC800013002D14FF0FF3070474FF000007047FD
:100CD80080B483B000AF03463960FB7197F90730E1
:100CE800002B0BDA3B68DAB20C49FB7903F00F03EF
:100CF800043B1201D2B20B441A7609E03B68DAB21F
:100D0800074997F907301201D2B20B4483F8002340
:100D180000BF0C37BD465DF8047B704700ED00E06E
:100D280000E100E080B483B000AF78607B684FF4E6
:100D3800C87202FB03F303F5A8730C4A1A440C4962
:100D48007B6841F83320094A7B684FF4C87101FB7E
:100D580003F3134403F5C6734FF080721A6000BFA3
:100D68000C37BD465DF8047B704700BF7404002053
:100D78005C04002080B584B000AFF860B9607A6088
:100D880072B600BF134B144A5A60124B134ADA600A
:100D9800104B104A5A610020FFF7C4FFFB68104A45
:100DA800C2F888310120FFF7BDFFBB680C4AC2F8C2
:100DB80018330220FFF7B6FF7B68094AC2F8A83447
:100DC800084B044A1A6062B600BF01231846103760
:100DD800BD4680BD5C040020640400206C04002033
:100DE800740400205804002080B400AF72B600BF1D
:100DF80000BFBD465DF8047B70470000000000009E
:100E080090B583B000AF78601D4B00221A601C4B70
:100E180000229A6007210F20FFF75AFF7868FFF732
:100E2800ABFC4FF00002174BFFF74AFE02460B4699
:100E38001046194610A3D3E90023FFF717FD024611
:100E48000B46104619464FF000020F4BFFF756FBB2
:100E580002460B460A4C10461946FFF719FF03468F
:100E68006360074B07221A60FFF7FEF900BF0C37D3
:100E7800BD4690BDAFF300800000000080846E4145
:100E880010E000E000408F400000F03F80B400AF69
:100E9800024B1B680133014A1360F9E72C09002053
:100EA80080B400AF024B1B680133014A1360F9E7B5
:100EB8002809002080B400AF024B1B680133014AA7
:100EC8001360F9E72409002080B500AF094B002220
:100ED8001A60094B00221A60084B00221A60FFF7BB
:100EE80083FF074A07490848FFF744FF0A20FFF72E
:100EF80087FFFEE72C09002028090020240900208C
:100F0800BD0E0008A90E0008950E000880B400AFB9
:100F1800084BD3F88830074A43F47003C2F8883086
:100F2800044B4FF000629A6000BFBD465DF8047B39
:100F3800704700BF00ED00E080B487B000AF002329
:100F48003B6100237B610223FB600023BB6002231B
:100F58007B60344B9B6803F00C033B613B69082BB7
:100F680011D03B69082B44D83B69002B03D03B695F
:100F7800042B04D03DE02C4B2C4A1A603DE02A4B50
:100F88002B4A1A6039E0274B5B689B0D03F001037D
:100F9800BB60244B5B6803F03F037B60BB68002B9E
:100FA8000CD0234A7B68B2FBF3F31E4A52689209BD
:100FB800C2F3080202FB03F37B610BE01B4A7B6868
:100FC800B2FBF3F3174A52689209C2F3080202FB14
:100FD80003F37B61134B5B681B0C03F003030133C2
:100FE8005B00FB607A69FB68B2FBF3F30E4A13609F
:100FF80003E00D4B0D4A1A6000BF0A4B9B681B09A2
:1010080003F00F030B4AD35C3B61074B1A683B693B
:1010180022FA03F3044A136000BF1C37BD465DF88B
:10102800047B704700380240040000200024F400CC
:1010380040787D0188130008DFF834D0002103E0F0
:101048000C4B5B58435004310B480C4B42189A42E6
:10105800F6D30B4A02E0002342F8043B094B9A42BC
:10106800F9D3FFF753FF00F021F8FFF72DFF704782
:1010780000000220B8130008000000203C040020F3
:101088003C04002054090020FEE7000008B50021B8
:10109800044600F089F8044B1868C36B03B19847FD
:1010A800204600F05DF900BFA013000870B50D4E92
:1010B8000D4D761BB61006D0002455F8043B0134BC
:1010C8009847A642F9D1094E094D761B00F04CF914
:1010D800B61006D0002455F8043B01349847A642C0
:1010E800F9D170BDAC130008AC130008B4130008A4
:1010F800AC130008F0B4860746D0541E002A3CD032
:10110800CAB2034601E0013C37D303F8012B9D071F
:10111800F9D1032C2AD9CDB245EA05250F2C45EA89
:10112800054534D9A4F1100222F00F0C03F1200771
:101138001609674403F1100242E9045542E90255D1
:101148001032BA42F8D1721C14F00C0F03EB0212E1
:1011580004F00F0613D0331F23F0030304331344A2
:1011680042F8045B9342FBD106F003042CB1CAB2E7
:101178001C4403F8012B9C42FBD1F0BC7047344659
:101188001346002CF3D1F8E714460346C1E71A4684
:101198002646E0E7024B13B1024800F06BB87047EF
:1011A80000000000891200082DE9F84F2F4B2DEDA3
:1011B800028B834618680F4600F082F82C4BD3F850
:1011C8000080D8F84861AEB108EE10BA4FF00109B6
:1011D8004FF0000A7468651E0CD4013406EB8404D1
:1011E80087B1D4F80031BB420CD0013D6B1CA4F18F
:1011F8000404F5D1BDEC028B1C4B1868BDE8F84F10
:1012080000F066B873682268013BAB420CBF75609A
:10121800C4F800A0002AE8D0D6F88801D6F804B0AF
:1012280009FA05F101420BD1904772685A4513D16A
:10123800D8F84831B342D8D01E46002ECAD1D9E7D3
:10124800D6F88C0101420CD1D4F8801018EE100A9F
:10125800904772685A45EBD0D8F84861002EB9D14A
:10126800C8E7D4F880009047DFE700BF38040020C3
:10127800A0130008002301461A46184600F02AB8B1
:1012880038B5084B084D5B1B9C1007D0043B1D4428
:10129800013C55F804399847002CF9D1BDE838408D
:1012A80000F068B8B8130008B4130008704700BF0E
:1012B800704700BF704700BF704700BF704700BF4E
:1012C800704700BF0120704701207047704700BF7A
:1012D800704700BF2DE9F047DFF880A00646DAF82E
:1012E800000098460F469146FFF7EAFF1A4B1B6825
:1012F800D3F8484124B365681F2D26DC5EB9AB1CC2
:101308000135DAF80000656044F82370FFF7E0FF64
:101318000020BDE8F08704EB85030121C3F888901D
:10132800D4F88821A9400A43022EC4F88821C3F8BA
:101338000881E4D1D4F88C311943C4F88C11DEE764
:1013480003F5A674C3F84841D5E7DAF80000FFF7BB
:10135800BFFF4FF0FF30DCE7A0130008380400207F
:10136800FEE700BF00000000F8B500BFF8BC08BCED
:101378009E467047F8B500BFF8BC08BC9E4670474B
:10138800000000000000000001020304060708092D
:0C1398000000000001020304100000200F
:0813A40034EEFF7F01000000A0
:0813AC009D110008BD010008BD
:0413B4009901000893
:1013B800000000000024F4001000002000000000DD
:1013C80000000000FC02002064030020CC03002081
:1013D8000000000000000000000000000000000005
:1013E80000000000000000000000000000000000F5
:1013F80000000000000000000000000000000000E5
:1014080000000000000000000000000000000000D4
:1014180000000000000000000000000000000000C4
:1014280000000000000000000000000000000000B4
:1014380000000000000000000000000000000000A4
:101448000000000000000000000000000000000094
:101458000000000000000000000000000000000084
:101468000000000000000000010000000000000073
:101478000E33CDAB34126DE6ECDE05000B00000038
:101488000000000000000000000000000000000054
:101498000000000000000000000000000000000044
:1014A8000000000000000000000000000000000034
:1014B8000000000000000000000000000000000024
:0C17E8000000000000000000300900209C
:04000005080010419E
:00000001FF
