:020000040800F2
:100000000000022079030008C9030008C9030008A2
:10001000C9030008C9030008C90300080000000064
:10002000000000000000000000000000C9030008FC
:10003000C903000800000000C9030008C903000844
:10004000C9030008C9030008C9030008C903000860
:10005000C9030008C9030008C9030008C903000850
:10006000C9030008C9030008C9030008C903000840
:10007000C9030008C9030008C9030008C903000830
:10008000C9030008C9030008C903000800000000F4
:10009000000000000000000000000000C90300088C
:1000A000C9030008C9030008C9030008C903000800
:1000B000C9030008C9030008C9030008C9030008F0
:1000C000C9030008C9030008C9030008C9030008E0
:1000D000C9030008C9030008C903000800000000A4
:1000E000C9030008C9030008C90300080000000094
:1000F000000000000000000000000000C90300082C
:1001000000000000C9030008C9030008C903000873
:1001100000000000000000000000000000000000DF
:10012000C9030008C9030008C9030008C90300087F
:10013000C9030008000000000000000000000000EB
:10014000000000000000000000000000C9030008DB
:10015000C9030008C9030008C9030008C90300084F
:10016000C9030008C90300080000000000000000E7
:10017000000000000000000000000000000000007F
:1001800000000000C903000800000000000000009B
:08019000C9030008C9030008BF
:1001980010B5054C237833B9044B13B10448AFF3B9
:1001A80000800123237010BD3C04002000000000E3
:1001B800A406000808B5034B1BB103490348AFF375
:1001C800008008BD0000000040040020A4060008CC
:1001D800154B002B08BF134B9D46A3F5803A002111
:1001E8008B460F461348144A121A00F01FF90F4B9A
:1001F800002B00D098470E4B002B00D098470020CA
:10020800002104000D000D48002802D00C4800F021
:10021800CDF900F0E7F82000290000F013F800F00D
:10022800D1F800BF00000800000000000000000036
:10023800000000003C0400207C040020B5050008F4
:10024800C105000800F009F800F011F800F01BF8EB
:1002580000F013F800F017F8F6E70D49086840F0C9
:10026800080008600B4908684FF0AA4008600A496E
:10027800086840F4704008607047074908684FF004
:10028800000008607047054A013A08BF7047FBE75D
:1002980030380240000C0240140C02400460180080
:1002A800F0060008000000203C0400203C04002068
:1002B8007C040020054BD3F8882042F47002C3F870
:1002C80088204FF000629A60704700BF00ED00E0A0
:1002D800224B9B6803F00C03042B14D0082B16D078
:1002E8001BB11F4B1F4A1A6002E01D4B1D4A1A60C2
:1002F8001A4B9B68C3F303131B4AD15C184A136853
:10030800CB4013607047164B184A1A60F0E7134B3E
:100318005A685B6803F03F0312F4800F13D0134A46
:10032800B2FBF3F20D4B5B68C3F3881303FB02F3D4
:100338000A4A5268C2F3014201325200B3FBF2F397
:10034800074A1360D4E7074AB2FBF3F2034B5B6832
:10035800C3F3881303FB02F3EAE700BF0038024047
:10036800040000200024F400C006000840787D0145
:10037800DFF834D0002103E00C4B5B5843500431C4
:100388000B480C4B42189A42F6D30B4A02E0002362
:1003980042F8043B094B9A42F9D3FFF78BFF00F070
:1003A80021F8FFF74FFF704700000220F006000811
:1003B800000000203C0400203C0400207C040020B5
:1003C800FEE7000008B50021044600F089F8044B58
:1003D8001868C36B03B19847204600F05DF900BF69
:1003E800D806000870B50D4E0D4D761BB61006D018
:1003F800002455F8043B01349847A642F9D1094E28
:10040800094D761B00F04CF9B61006D0002455F8BB
:10041800043B01349847A642F9D170BDE4060008B0
:10042800E4060008EC060008E4060008F0B48607B5
:1004380046D0541E002A3CD0CAB2034601E0013C13
:1004480037D303F8012B9D07F9D1032C2AD9CDB254
:1004580045EA05250F2C45EA054534D9A4F11002D3
:1004680022F00F0C03F120071609674403F110026C
:1004780042E9045542E902551032BA42F8D1721CD9
:1004880014F00C0F03EB021204F00F0613D0331F05
:1004980023F003030433134442F8045B9342FBD173
:1004A80006F003042CB1CAB21C4403F8012B9C4289
:1004B800FBD1F0BC704734461346002CF3D1F8E763
:1004C80014460346C1E71A462646E0E7024B13B135
:1004D800024800F06BB8704700000000C105000832
:1004E8002DE9F84F2F4B2DED028B834618680F46E8
:1004F80000F082F82C4BD3F80080D8F84861AEB1F0
:1005080008EE10BA4FF001094FF0000A7468651E32
:100518000CD4013406EB840487B1D4F80031BB4213
:100528000CD0013D6B1CA4F10404F5D1BDEC028B89
:100538001C4B1868BDE8F84F00F066B8736822686D
:10054800013BAB420CBF7560C4F800A0002AE8D09C
:10055800D6F88801D6F804B009FA05F101420BD1A2
:10056800904772685A4513D1D8F84831B342D8D069
:100578001E46002ECAD1D9E7D6F88C0101420CD10B
:10058800D4F8801018EE100A904772685A45EBD0DC
:10059800D8F84861002EB9D1C8E7D4F88000904750
:1005A800DFE700BF38040020D80600080023014612
:1005B8001A46184600F02AB838B5084B084D5B1B98
:1005C8009C1007D0043B1D44013C55F8043998475A
:1005D800002CF9D1BDE8384000F068B8F0060008F2
:1005E800EC060008704700BF704700BF704700BFA7
:1005F800704700BF704700BF704700BF01207047B9
:1006080001207047704700BF704700BF2DE9F047D1
:10061800DFF880A00646DAF8000098460F469146B3
:10062800FFF7EAFF1A4B1B68D3F8484124B3656803
:100638001F2D26DC5EB9AB1C0135DAF800006560B9
:1006480044F82370FFF7E0FF0020BDE8F08704EBD3
:1006580085030121C3F88890D4F88821A9400A436A
:10066800022EC4F88821C3F80881E4D1D4F88C316B
:100678001943C4F88C11DEE703F5A674C3F84841A2
:10068800D5E7DAF80000FFF7BFFF4FF0FF30DCE7EF
:10069800D806000838040020FEE700BF000000006C
:1006A800F8B500BFF8BC08BC9E467047F8B500BF57
:0806B800F8BC08BC9E46704727
:1006C0000000000000000000010203040607080902
:0C06D000000000000102030410000020E4
:0806DC00FCFAFF7F01000000A1
:0806E400D5040008BD01000867
:0406EC009901000868
:1006F000000000000024F4001000002000000000B2
:1007000000000000FC02002064030020CC03002055
:1007100000000000000000000000000000000000D9
:1007200000000000000000000000000000000000C9
:1007300000000000000000000000000000000000B9
:1007400000000000000000000000000000000000A9
:100750000000000000000000000000000000000099
:100760000000000000000000000000000000000089
:100770000000000000000000000000000000000079
:100780000000000000000000000000000000000069
:100790000000000000000000000000000000000059
:1007A0000000000000000000010000000000000048
:1007B0000E33CDAB34126DE6ECDE05000B0000000D
:1007C0000000000000000000000000000000000029
:1007D0000000000000000000000000000000000019
:1007E0000000000000000000000000000000000009
:1007F00000000000000000000000000000000000F9
:0C0B20000000000000000000580400204D
:040000050800037973
:00000001FF
